:020000040800F2
:1000000000200020B9000008C1190008D519000817
:1000100000000000000000000000000000000000E0
:10002000000000000000000000000000C1190008EE
:100030000000000000000000C1190008C1190008FC
:10004000C1190008C1190008C1190008C119000828
:10005000C1190008C1190008C1190008C119000818
:1000600000000000C1190008C1190008C1190008EA
:10007000C1190008C119000800000000DD020008D5
:1000800000000000C119000800000000000000008E
:10009000C119000800000000C1190008C1190008BA
:1000A000C1190008C1190008C1190008290F00086A
:1000B000D9140008C119000801F0FEFB01F0C0FBD3
:1000C000E1235B02180000F087FE62B6C04600F034
:1000D000D7FA024B180000F0EFFFFEE7D4560008F5
:1000E00080B582B000AF7860C0467B685A1E7A60E7
:1000F000002BFAD1C046C046BD4602B080BD80B5D7
:1001000000AF0B4B0B4A5A60094B00229A60084B18
:1001100005221A60C046064B1A6880235B02134012
:10012000F9D0034B00221A60C046BD4680BDC046D0
:1001300010E000E0FF7C000080B582B000AF786086
:1001400001E0FFF7DCFF7B685A1E7A60002BF8D1D4
:10015000C046C046BD4602B080BD80B582B000AF8B
:100160000200FB1D1A70FB1D1B7819000F4801F0DF
:1001700089FD030019000E4801F084FD03005A1E9A
:100180000C4B5A600B4B00229A600A4B05221A60F6
:10019000C046084B1A6880235B021340F9D0054B18
:1001A00000221A60C046BD4602B080BD40420F002A
:1001B0000048E80110E000E080B582B000AF786050
:1001C00001E0FFF79CFF7B685A1E7A60002BF8D194
:1001D000C046C046BD4602B080BD80B584B000AF09
:1001E000786072B6C0463B4B3B4A5A60394B3A4A3C
:1001F0009A60384B05221A6007E0364B1A68802354
:100200005B02134001D0002360E0A023DB051A69E4
:1002100080235B001340F0D12E4B00221A602D4B3F
:100220002D4A5A602B4B2C4A9A602A4B05221A60A1
:1002300007E0284B1A6880235B02134001D000239B
:1002400044E0A023DB051A6980235B001340F0D053
:10025000204B00221A601F4B1F4A5A601D4B1E4A3A
:100260009A601C4B05221A600023FB6021E0194BA9
:100270001A6880235B02134001D0002326E0A023EC
:10028000DB051A6980235B001340F0D107E0114BB6
:100290001A6880235B02134001D0002316E0A023DC
:1002A000DB051A6980235B001340F0D0FB68013343
:1002B000FB60FA687B689A42E1DB064B00221A6019
:1002C00062B6C046034B9B68034AD31A1800BD466A
:1002D00004B080BD10E000E0FFFFFF0080B500AF7C
:1002E0008023DB051A698023DB0501218A431A611B
:1002F0003A4B1B685A1C394B1A60394B1A68374BFA
:100300001B689A4208DDA023DB055A69A023DB05A0
:1003100001210A435A6107E0A023DB055A69A023A3
:10032000DB0501218A435A612E4B1A682B4B1B684F
:100330009A4208DDA023DB055A69A023DB050221D0
:100340000A435A6107E0A023DB055A69A023DB05B5
:1003500002218A435A61244B1A68204B1B689A4237
:1003600008DDA023DB055A69A023DB0504210A432D
:100370005A6107E0A023DB055A69A023DB050421AD
:100380008A435A61194B1A68144B1B689A4208DD5C
:10039000A023DB055A69A023DB0508210A435A6123
:1003A00007E0A023DB055A69A023DB0508218A4367
:1003B0005A610A4B1A68FA23DB009A420BDD074B9D
:1003C00000221A60A023DB055A69A023DB05C021A7
:1003D00049010A435A61C046BD4680BD68000020FD
:1003E0006C000020700000207400002078000020C5
:1003F00080B500AFA023DB05012252429A607D4BFD
:10040000DA6A7C4B01210A43DA62A023DB051B6810
:10041000794A1A40A023DB058021C9040A431A60E7
:10042000A023DB055A69A023DB05802189010A434B
:100430005A61A023DB051A68A023DB056F490A4037
:100440001A60A023DB05DA68A023DB0580214902BE
:100450000A43DA60A023DB05DA68A023DB056849DC
:100460000A40DA60634BDA6A624B01210A43DA62BE
:10047000A023DB051B68032293431A00A023DB059E
:1004800001210A431A60A023DB055A68A023DB057B
:1004900001218A435A60A023DB051B680C22934389
:1004A0001A00A023DB0504210A431A60A023DB0500
:1004B0005A68A023DB0502218A435A604D4BDA6A51
:1004C0004C4B01210A43DA62A023DB051B68302272
:1004D00093431A00A023DB0510210A431A60A023CE
:1004E000DB055A68A023DB0504218A435A60A02358
:1004F000DB051B68C02293431A00A023DB054021C3
:100500000A431A60A023DB055A68A023DB050821F3
:100510008A435A60374B9A6B364B01210A439A63E0
:100520008023DB054022FF32DA62364B1A68354BF6
:10053000802109020A431A608023DB051A688023A0
:10054000DB0510210A431A608023DB051A6880232B
:10055000DB0580210A431A608023DB05DA688023EB
:10056000DB0501210A43DA608023DB051A6880235A
:10057000DB0501210A431A6062B6C046A023DB05F1
:10058000012252429A601B4BDA6A1A4B01210A433C
:10059000DA62A023DB051B68174A1A40A023DB059B
:1005A0008021C9040A431A60A023DB055A69A023ED
:1005B000DB05802189010A435A61A023DB051A6803
:1005C000A023DB050D490A401A60A023DB05DA6889
:1005D000A023DB05802149020A43DA60A023DB0562
:1005E000DA68A023DB0506490A40DA60C046BD464A
:1005F00080BDC04600100240FFFFFFF3FFFFFCFF7D
:10060000FFFFFDFF00E100E090B58DB000AF786026
:100610007A68184B1100180002F044FCA023DB0597
:100620005A69A023DB0514490A405A610A20FFF7E2
:10063000C3FD7B68180001F017F808243B19272137
:10064000180001F04BF8A023DB055A69A023DB0555
:10065000802189010A435A610A20FFF7ADFD3A194A
:10066000064B1100180002F01DFCC046BD460DB03F
:1006700090BDC04670540008FFDFFFFF7C540008A7
:1006800090B5A1B000AF00237B6700233B67002338
:10069000FB660123BB6700237B6000233B60FA23DA
:1006A0009B00BB66FA235B007B66D14BDA6AD04BBA
:1006B00001210A43DA62A023DB051A68A023DB05C7
:1006C000CC490A401A60A023DB05DA68A023DB05C9
:1006D000802149020A43DA60A023DB05DA68A023FF
:1006E000DB05C5490A40DA60FFF782FE96239B01CD
:1006F000180000F04BFEC14B180002F05FFCFA231B
:100700009B001800FFF758FDBD4B1800FFF77CFF5A
:10071000BC4B1800FFF778FFBB4B1800FFF774FFC6
:10072000BA4B1800FFF770FFB94B1800FFF76CFFCA
:10073000B84B1800FFF768FFB74B1800FFF764FFCE
:10074000B64B1800FFF760FFB54B180002F036FCFF
:1007500001F00AF8031E00DC53E208243B19502183
:10076000180000F0BBFF3A19AE4B1100180002F060
:1007700099FB3B1D3A00AC49381902F065FC0300B7
:100780003B663B19180002F0FDFC0300072B00D06C
:1007900037E239687A68A54B180002F083FB3B68A2
:1007A000102B11D17B681F2B0EDDA14B180002F01E
:1007B00079FBBA6E9F4B1A609F4B1A6000229F4BC9
:1007C0001A609F4B1A601CE23B68102B11D17B68AA
:1007D000002B0ED19B4B180002F064FB0022954BBE
:1007E0001A60954B1A60BA6E944B1A60944B1A605B
:1007F00007E23B681F2B11DD7B68102B0ED1924B5B
:10080000180002F04FFBBA6E8D4B1A60894B1A60CC
:1008100000228A4B1A60884B1A60F2E13B68002B79
:1008200011D17B68102B0ED1884B180002F03AFBD7
:10083000BA6E824B1A60804B1A600022804B1A609D
:100840007C4B1A60DDE13B681F2B1FDD7B681F2B93
:100850001CDD7F4B180002F025FB764BBA6E1A6048
:10086000B86E02F0ABF900227A4B01F005FF0200EE
:100870000B001000190002F06BF90200704B1A60B7
:1008800000226E4B1A606C4B1A60BAE13B681F2B5A
:100890001FDD7B68002B1CD16F4B180002F002FBA0
:1008A000674BBA6E1A60B86E02F088F90022694B85
:1008B00001F0E2FE02000B001000190002F048F9FE
:1008C00002005C4B1A6000225C4B1A605A4B1A60A3
:1008D00097E13B68002B1FD17B681F2B1CDD5F4B12
:1008E000180002F0DFFA554BBA6E1A60B86E02F0CB
:1008F00065F90022574B01F0BFFE02000B0010000B
:10090000190002F025F902004B4B1A6000224C4BF3
:100910001A60484B1A6074E13B68002B1FD17B685A
:10092000002B1CD14E4B180002F0BCFA424BBA6EA1
:100930001A60B86E02F042F90022464B01F09CFEAC
:1009400002000B001000190002F002F902003B4BFC
:100950001A6000223A4B1A60364B1A6051E13B682C
:10096000102B14D17B68102B11DD7B681F2B0EDC44
:100970003C4B180002F096FABA6E2E4B1A602E4BC2
:100980001A6000222D4B1A602D4B1A6039E13B682A
:10099000102B14D17B680F2B11DC7B68002B0EDD34
:1009A000314B180002F07EFA0022224B1A60224BD3
:1009B0001A607A6E214B1A60214B1A6021E13B6864
:1009C000202B55DC3B68102B52DD7B68102B4FD160
:1009D000264B180002F066FA7A6E194B1A60154B16
:1009E0001A600022154B1A60134B1A6009E1C046C9
:1009F00000100240FFFFFCFFFFFFFDFF8C540008CA
:100A0000A4540008B0540008BC540008C85400089E
:100A1000D4540008E0540008EC540008F8540008CE
:100A20000855000850550008545500085C5500084A
:100A300064550008700000206C0000207800002041
:100A4000740000206C55000874550008805500089B
:100A50008C5500080000E03FA8550008C05500086C
:100A6000DC550008F8550008085600081456000820
:100A70003B68002B14DD3B680F2B11DC7B68102BCF
:100A80000ED1824B180002F00DFA7A6E804B1A607C
:100A9000804B1A600022804B1A60804B1A60B0E0D5
:100AA0003B68102B25DD3B68202B22DC7B68102B5C
:100AB0001FDD7B68202B1CDC794B180002F0F2F95B
:100AC000764B7A6E1A60786E02F078F80022754BD9
:100AD00001F0D2FD02000B001000190002F038F8FE
:100AE00002006D4B1A600022694B1A60694B1A6054
:100AF00087E03B68102B25DD3B68202B22DC7B68E0
:100B0000002B1FDD7B680F2B1CDC674B180002F0ED
:100B1000C9F9614B7A6E1A60786E02F04FF80022C4
:100B2000604B01F0A9FD02000B001000190002F05B
:100B30000FF80200594B1A600022554B1A60554BB2
:100B40001A605EE03B68002B25DD3B680F2B22DC42
:100B50007B68102B1FDD7B68202B1CDC534B18009F
:100B600002F0A0F94A4B7A6E1A60786E02F026F80D
:100B700000224C4B01F080FD02000B001000190018
:100B800001F0E6FF0200434B1A600022424B1A605C
:100B9000424B1A6035E03B68002B25DD3B680F2B8C
:100BA00022DC7B68002B1FDD7B680F2B1CDC404B9D
:100BB000180002F077F9374B7A6E1A60786E01F000
:100BC000FDFF0022374B01F057FD02000B00100023
:100BD000190001F0BDFF02002D4B1A6000222E4BC0
:100BE0001A602E4B1A600CE0324B180002F05AF9D2
:100BF0000023274A1360284A1360284A1360254AB5
:100C00001360BB6F012B06D16420FFF7E6FA0300E7
:100C1000FB670023BB676420FFF7DFFA0300FB6577
:100C2000FB6D002B15DDF86D01F0C8FF0022224B93
:100C300001F02CFA02000B001000190001F0EEFF89
:100C4000031C3B67396FFE20800501F007F9031C88
:100C5000FB66FA6DFB6FD31ADA179B185340BB651E
:100C6000BA6D164B1100180002F01CF9BA6D144948
:100C700008243B19180002F0C7F99620FFF79CFAE8
:100C80003B19180000F0F0FC62E5C046245600084D
:100C9000780000206C00002074000020700000200C
:100CA000345600080000E03F54560008745600080F
:100CB00094560008B456000884D7E741C45600088B
:100CC000CC56000890B585B000AF78603960184BFD
:100CD0001B68002B02D101235B4224E00023FB6050
:100CE0000AE0FB685A1CFA603A68D418114B1800E5
:100CF00000F0ADF9030023707B68013B1A00FB682C
:100D0000934205D20B4B180000F0CCF9031EE8D13A
:100D1000FB68002B06D03A68FB68D31800221A70D3
:100D2000FB6800E000231800BD4605B090BDC0463A
:100D3000140100207C00002080B584B000AF7860F2
:100D40003960224B1B68002B02D101235B4238E043
:100D50007B683F2B0BDCC0461D4B180000F0A2F94E
:100D600003004022D21A7B689A42F5D302E00223A4
:100D70005B4226E00023FB600BE03A68FB68D31877
:100D80001A78134B1100180000F030F9FB6801339A
:100D9000FB607B68FA689A42EFD30E4B1B6808220F
:100DA00013400DD10B4B1A680A4B08210A431A60F5
:100DB000074B180000F04BF903001A00054B9A622C
:100DC00000231800BD4604B080BDC04614010020B9
:100DD000C80000200038014080B584B000AF7860C2
:100DE00072B6C046454B00229A64444B9A6C434B02
:100DF0005A64424B5A6C414B1A64414B00229A642C
:100E00003F4B9A6C3E4B5A643D4B5A6C3C4B1A64B8
:100E10003C4B01221A603C4B00221A603B4BDA6AC1
:100E20003A4B01210A43DA62394BFB607968F86872
:100E300000F028FF0300FB60A023DB059A68A023D5
:100E4000DB058021C9020A439A60A023DB055A68AA
:100E5000A023DB052F490A405A60A023DB051B684D
:100E60002D4A1A40A023DB05802109030A431A609A
:100E7000A023DB055A6AA023DB0540210A435A62FE
:100E8000A023DB051B68254A1A40A023DB0580212F
:100E900089030A431A60A023DB055A6AA023DB05F5
:100EA0008021C9000A435A62184B5A6B174B8021A4
:100EB000C9010A435A631A4B1A68194B6C210A4339
:100EC0001A60174B00225A60154B00229A60144B8F
:100ED000FA68DA60124B1A68114B01210A431A6052
:100EE000104B1A680F4B802109050A431A6062B63D
:100EF000C046C046BD4604B080BDC0467C00002050
:100F0000C800002014010020180100200010024039
:100F10000048E801FFFDFFFFFFFFF3FFFFFFCFFFEA
:100F20000038014000E100E080B500AF084BDB690C
:100F30008022134001D000F025F8054BDB69202208
:100F4000134001D000F006F8C046BD4680BDC04643
:100F50000038014080B500AF074B5B6ADAB2074B3F
:100F60001100180000F042F8031E02D0044B0122C9
:100F70001A60C046BD4680BD003801407C0000209C
:100F80001801002080B500AF164B180000F08AF859
:100F9000031E08D0134B180000F059F803001A0084
:100FA000114B9A621BE0104B1A680F4B08218A43C1
:100FB0001A600D4BDB694022134005D00A4B1A6AB8
:100FC000094B40210A431A62074BDB698022134018
:100FD00005D0054B9A69044B10210A439A61C0461B
:100FE000BD4680BDC80000200038014080B582B0F9
:100FF00000AF78600A00FB1C1A707B681A6C7B6873
:101000005B6C9A4205D17B689B6C002B01D001235D
:1010100019E072B6C0467B681B6C591C7A68116473
:101020007A68F91C0978D1547B689B6C5A1C7B68E0
:101030009A647B681B6C402B02D17B6800221A6487
:1010400062B6C04600231800BD4602B080BD80B520
:1010500084B000AF78607B689B6C002B01D10023CB
:101060001CE072B6C0467B685B6C591C7A685164A0
:101070000F22BA187968CB5C13707B685B6C402BCD
:1010800002D17B6800225A647B689B6C5A1E7B6885
:101090009A6462B6C0460F23FB181B781800BD4641
:1010A00004B080BD80B582B000AF78607B689B6C77
:1010B0001800BD4602B080BD80B582B000AF786038
:1010C0000B4B1B68002B09D101235B420BE07B68B3
:1010D0005A1C7A6019000120FFF72EFE7B681B78EE
:1010E000002BF4D100231800BD4602B080BDC046DD
:1010F0001401002080B582B000AF0200FB1D1A7001
:10110000FB1D19000120FFF717FEC046BD4602B0C7
:1011100080BD80B500AF044B1800FFF798FF0300B7
:101120001800BD4680BDC0467C000020B0B584B02C
:1011300000AF786039601E4B1B68002B02D1012381
:101140005B4231E00023FB600B23FB1800221A7086
:1011500017E0C046174B1800FFF7A4FF031EF9D095
:101160000B257C19134B1800FFF771FF0300237048
:10117000FB685A1CFA601A007B689B187A1912786F
:101180001A703B68013BFA689A4204DA0B23FB1899
:101190001B780D2BDDD1FB68002B04DDFB687A6822
:1011A000D31800221A70FB681800BD4604B0B0BD09
:1011B000140100207C00002090B583B000AFFC1D1E
:1011C000FFF7A7FF03002370FB1D1B781800FFF734
:1011D00091FFFB1D1B781800BD4603B090BDB0B554
:1011E00084B000AF78603960214B1B68002B02D1BE
:1011F00001235B4237E00023FB600B23FB18002236
:101200001A701DE0C0461B4B1800FFF74BFF031E72
:10121000F9D00B257C19174B1800FFF718FF0300B6
:1012200023702C003B191B781800FFF763FFFB6845
:101230005A1CFA601A007B689B183A1912781A70C7
:101240003B68013BFA689A4204DA0B23FB181B78CF
:101250000D2BD7D1FB68002B04DDFB687A68D3180F
:1012600000221A70FB681800BD4604B0B0BDC0462D
:10127000140100207C00002090B585B000AF78609C
:101280003960184B1B68002B02D101235B4224E01C
:101290000023FB600AE0FB685A1CFA603A68D41825
:1012A000114B180000F0ABF9030023707B68013B81
:1012B0001A00FB68934205D20B4B180000F0CAF9E4
:1012C000031EE8D1FB68002B06D03A68FB68D318F0
:1012D00000221A70FB6800E000231800BD4605B02C
:1012E00090BDC046B80100202001002080B584B028
:1012F00000AF78603960224B1B68002B02D10123BC
:101300005B4238E07B683F2B0BDCC0461D4B18006E
:1013100000F0A0F903004022D21A7B689A42F5D36C
:1013200002E002235B4226E00023FB600BE03A6808
:10133000FB68D3181A78134B1100180000F02EF92F
:10134000FB680133FB607B68FA689A42EFD30E4B6F
:101350001B68082213400DD10B4B1A680A4B082159
:101360000A431A60074B180000F049F903001A00FD
:10137000054B9A6200231800BD4604B080BDC046EC
:10138000B80100206C0100200044004080B584B00A
:1013900000AF786072B6C046454B00229A64444B59
:1013A0009A6C434B5A64424B5A6C414B1A64414B02
:1013B00000229A643F4B9A6C3E4B5A643D4B5A6CE8
:1013C0003C4B1A643C4B01221A603C4B00221A60D1
:1013D0003B4BDA6A3A4B01210A43DA62394BFB6034
:1013E0007968F86800F04EFC0300FB60A023DB0581
:1013F0009A68A023DB05802149050A439A60A0234F
:10140000DB055A68A023DB052F490A405A60A02358
:10141000DB051B682D4A1A40A023DB0580218905C6
:101420000A431A60A023DB055A6AA023DB0580214A
:10143000C9040A435A62A023DB051B689B009A0873
:10144000A023DB05802109060A431A60A023DB05DF
:101450005A6AA023DB058021C9050A435A62184B4A
:101460009A6B174B802189020A439A63184B1A68BA
:10147000174B6C210A431A60154B00225A60144B1B
:1014800000229A60124BFA68DA60114B1A68104B0E
:1014900001210A431A600F4B1A680E4B802149053F
:1014A0000A431A6062B6C046C046BD4604B080BD5D
:1014B000200100206C010020B8010020BC010020A8
:1014C000001002400048E801FFBFFFFFFFFFFFCF11
:1014D0000044004000E100E080B500AF084BDB694C
:1014E0008022134001D000F025F8054BDB69202253
:1014F000134001D000F006F8C046BD4680BDC0468E
:101500000044004080B500AF074B5B6ADAB2074B7E
:101510001100180000F042F8031E02D0044B012213
:101520001A60C046BD4680BD004400402001002036
:10153000BC01002080B500AF164B180000F08AF8FF
:10154000031E08D0134B180000F059F803001A00CE
:10155000114B9A621BE0104B1A680F4B08218A430B
:101560001A600D4BDB694022134005D00A4B1A6A02
:10157000094B40210A431A62074BDB698022134062
:1015800005D0054B9A69044B10210A439A61C04665
:10159000BD4680BD6C0100200044004080B582B093
:1015A00000AF78600A00FB1C1A707B681A6C7B68BD
:1015B0005B6C9A4205D17B689B6C002B01D00123A8
:1015C00019E072B6C0467B681B6C591C7A681164BE
:1015D0007A68F91C0978D1547B689B6C5A1C7B682B
:1015E0009A647B681B6C402B02D17B6800221A64D2
:1015F00062B6C04600231800BD4602B080BD80B56B
:1016000084B000AF78607B689B6C002B01D1002315
:101610001CE072B6C0467B685B6C591C7A685164EA
:101620000F22BA187968CB5C13707B685B6C402B17
:1016300002D17B6800225A647B689B6C5A1E7B68CF
:101640009A6462B6C0460F23FB181B781800BD468B
:1016500004B080BD80B582B000AF78607B689B6CC1
:101660001800BD4602B080BD80B582B000AF786082
:101670000B4B1B68002B09D101235B420BE07B68FD
:101680005A1C7A6019000120FFF730FE7B681B7836
:10169000002BF4D100231800BD4602B080BDC04627
:1016A000B801002080B582B000AF0200FB1D1A70A7
:1016B000FB1D19000120FFF719FEC046BD4602B010
:1016C00080BD80B500AF044B1800FFF798FF030002
:1016D0001800BD4680BDC04620010020B0B584B0D2
:1016E00000AF786039601E4B1B68002B02D10123CC
:1016F0005B4231E00023FB600B23FB1800221A70D1
:1017000017E0C046174B1800FFF7A4FF031EF9D0DF
:101710000B257C19134B1800FFF771FF0300237092
:10172000FB685A1CFA601A007B689B187A191278B9
:101730001A703B68013BFA689A4204DA0B23FB18E3
:101740001B780A2BDDD1FB68002B04DDFB687A686F
:10175000D31800221A70FB681800BD4604B0B0BD53
:10176000B80100202001002080B500AF034B180015
:10177000FFF770FF03001800BD4680BD2001002068
:1017800090B583B000AFFC1DFFF79BFF03002370F3
:10179000FB1D1B781800FFF785FFFB1D1B78180049
:1017A000BD4603B090BDB0B584B000AF786039607D
:1017B000214B1B68002B02D101235B4237E0002341
:1017C000FB600B23FB1800221A701DE0C0461B4B68
:1017D0001800FFF73FFF031EF9D00B257C19174BAC
:1017E0001800FFF70CFF030023702C003B191B7837
:1017F0001800FFF757FFFB685A1CFA601A007B6855
:101800009B183A1912781A703B68013BFA689A42A1
:1018100004DA0B23FB181B780D2BD7D1FB68002BA8
:1018200004DDFB687A68D31800221A70FB68180080
:10183000BD4604B0B0BDC046B80100202001002064
:1018400080B582B000AF164B7B60164B3B6007E063
:101850007A68131D7B603B68191D396012681A6035
:101860003A68114B9A42F3D304E03B681A1D3A6080
:1018700000221A603A680D4B9A42F6D30C4B3B603B
:1018800004E03B681A1D3A601B6898473A68094BA8
:101890009A42F6D3C046C046BD4602B080BDC0469F
:1018A000145A00080000002068000020E401002015
:1018B000145A0008145A000880B500AF3B4B1A6850
:1018C0003A4B01210A431A60C046384B1B68042278
:1018D0001340FAD0354B0122DA60C046334BDB6847
:1018E0000C221340042BF9D1314B1A68304B0221E2
:1018F0000A431A602E4B1A682D4B01210A431A60C5
:101900002A4B9A6B294B802149050A439A63294B3C
:10191000802212011A60C046264B5B6810221340D9
:10192000FAD1224BDA68214B23490A40DA601F4B77
:10193000DA681E4B8821C9030A43DA601B4A1B4B35
:10194000D268DA60194A194BD268DA60174A174B25
:10195000D268DA60154B1A68144B18490A401A60AD
:10196000124B1A68114B802149040A431A60C04681
:101970000E4B1A6880239B041340F9D00B4BDA6896
:101980000A4B03218A43DA60084BDA68074B0321CC
:101990000A43DA60C046054BDB680C2213400C2B6F
:1019A000F9D1C046C046BD4680BDC04600100240C9
:1019B0000020024000700040FFFF02FFFFFFFFFE1B
:1019C00080B500AF024B1800FFF776FBFEE7C0467C
:1019D000FC56000880B500AF024B1800FFF76CFB07
:1019E000FEE7C0462C57000880B582B000AF786093
:1019F000FEE780B582B000AF786001235B4218003B
:101A0000BD4602B080BD80B584B000AFF860B9605B
:101A10007A60044B0C221A6001235B421800BD4619
:101A200004B080BDCC01002080B500AF034B0B2279
:101A30001A6001235B421800BD4680BDCC01002026
:101A400080B582B000AF786039603B688022920137
:101A50005A6000231800BD4602B080BD80B500AFBB
:101A600001231800BD4680BD80B582B000AF78600C
:101A70003960044B16221A6001235B421800BD46F0
:101A800002B080BDCC01002080B582B000AF78608C
:101A90003960044B1F221A6001235B421800BD46C7
:101AA00002B080BDCC01002080B584B000AFF860EA
:101AB000B9607A6000231800BD4604B080BD80B5CF
:101AC00082B000AF786039603B68802292015A6032
:101AD00000231800BD4602B080BD80B582B000AFC3
:101AE000786001235B421800BD4602B080BD80B51E
:101AF00082B000AF7860044B02221A6001235B427F
:101B00001800BD4602B080BDCC01002080B582B077
:101B100000AF7860044B0A221A6001235B42180070
:101B2000BD4602B080BDC046CC01002080B582B069
:101B300000AF78607B68022B01D8012303E0044BDF
:101B400009221A6000231800BD4602B080BDC046BD
:101B5000CC01002080B586B000AF7860124B7B616D
:101B6000124B3B61124B1B68002B02D1104B7A6960
:101B70001A600F4B1B68FB600D4B1A687B68D3180B
:101B80003A699A4205D20B4B0C221A6001235B4240
:101B900006E0074B1A687B68D218054B1A60FB6891
:101BA0001800BD4606B080BDE401002000100020F2
:101BB000C8010020CC01002080B588B000AFF860DB
:101BC000B9607A600023BB61FB68002B22D100233F
:101BD000FB611AE0FFF79DFA03001A0017217B183A
:101BE0001A70BB685A1CBA607A181278D2B21A708E
:101BF000BB690133BB617B181B78DBB20A2B01D1B7
:101C0000BB690EE0FB690133FB61FA697B689A42AC
:101C1000E0DB05E0054B09221A6001235B4200E08E
:101C2000BB691800BD4608B080BDC046CC0100208D
:101C300080B586B000AFF860B9607A60FB68013BA0
:101C4000012B11D800237B6109E0BB685A1CBA60E4
:101C50001B781800FFF74EFA7B6901337B617A69C4
:101C60007B689A42F1DB05E0054B09221A600123EB
:101C70005B4200E07B681800BD4606B080BDC046F0
:101C8000CC01002003460B437FD4002243088B4243
:101C900074D303098B425FD3030A8B4244D3030BF3
:101CA0008B4228D3030C8B420DD3FF22090212BAB8
:101CB000030C8B4202D31212090265D0030B8B4234
:101CC00019D300E0090AC30B8B4201D3CB03C01A1E
:101CD0005241830B8B4201D38B03C01A5241430BF9
:101CE0008B4201D34B03C01A5241030B8B4201D3E9
:101CF0000B03C01A5241C30A8B4201D3CB02C01A54
:101D00005241830A8B4201D38B02C01A5241430ACB
:101D10008B4201D34B02C01A5241030A8B4201D3BA
:101D20000B02C01A5241CDD2C3098B4201D3CB0161
:101D3000C01A524183098B4201D38B01C01A524110
:101D400043098B4201D34B01C01A524103098B4214
:101D500001D30B01C01A5241C3088B4201D3CB00FF
:101D6000C01A524183088B4201D38B00C01A5241E2
:101D700043088B4201D34B00C01A5241411A00D292
:101D800001465241104670475DE0CA0F00D04942FB
:101D9000031000D34042534000229C4603098B426B
:101DA0002DD3030A8B4212D3FC22890112BA030AF3
:101DB0008B420CD3890192118B4208D38901921175
:101DC0008B4204D389013AD0921100E08909C309FA
:101DD0008B4201D3CB01C01A524183098B4201D3FC
:101DE0008B01C01A524143098B4201D34B01C01AE7
:101DF000524103098B4201D30B01C01A5241C3085F
:101E00008B4201D3CB00C01A524183088B4201D3CD
:101E10008B00C01A5241D9D243088B4201D34B00E8
:101E2000C01A5241411A00D20146634652415B102A
:101E3000104601D34042002B00D54942704763460B
:101E40005B1000D3404201B5002000F005F802BD50
:101E50000029F8D016E770477047C046F0B54F46E6
:101E60004646D6464502C0B547000C1C6D0A3F0EDB
:101E7000C60F002F00D170E0FF2F00D175E0EB00FE
:101E80008025ED041D43002399469A467F3F60025A
:101E9000430A984663001B0EE40F002B4ED0FF2B25
:101EA00046D04246D0008022D2040243904600220F
:101EB0007F3B3100FF1A4B466140C9B213430F2BE1
:101EC00000D9B5E06E489B00C3589F460023984652
:101ED0002600454692465346022B00D189E0032B4B
:101EE00000D19EE0012B18D03B007F33002B69DD31
:101EF0006A0704D00F222A40042A00D004352A01A0
:101F000003D5604B1D403B008033FE2B00DD70E0AD
:101F1000AD016D0AD8B202E00E0000200025C00518
:101F20002843F6073043E0BCBA46B146A846F0BDA8
:101F30004346002B3FD10222FF3F03E04346002BE4
:101F40002DD1012231004B466140C9B213430F2B02
:101F500034D84D489B00C3589F46002D13D104230D
:101F60009946033B00279A4691E7002D05D10823A7
:101F70009946063BFF279A4689E70C239946093B79
:101F8000FF279A4683E7280000F05AFF7627431F71
:101F90009D4000237F4299469A463F1A77E7404684
:101FA00000F04EFF4246431F9A4076235B42904624
:101FB0001B1A00227DE7FF2303227AE70E00FF2091
:101FC0000025ACE70120C01A1B28A6DC9E372A009A
:101FD000BD40C2406B1E9D4115436B0704D00F23CB
:101FE0002B40042B00D004356B0144D50120002583
:101FF00095E7FF20002592E780250026FF20ED03CE
:102000008DE7002398468020C003054209D043464F
:10201000034206D1454605436D022600FF206D0AA6
:102020007DE78020C00305436D02FF206D0A76E73F
:1020300042466B015001834219D21B220025013F09
:1020400001261C006D005B00002C01DB984201D8CA
:102050001B1A3543013A002AF3D15A1E93411D43FE
:102060003B007F330E00002B00DD41E7AAE71A2278
:1020700001251B1AE4E7AD0100206D0A4FE7C046B9
:1020800050570008FFFFFFF790570008F0B557467C
:102090004E464546DE46E0B5814605000C03480045
:1020A00092461F0085B0240B400DCE0F002800D1B2
:1020B00056E1D44B984200D172E16B0FE4001C430F
:1020C00080231B0423439846CF4BED009B460023FF
:1020D0009946834400933C037B005046240B5B0DE0
:1020E000FF0F002B00D11FE1C64A934200D162E1ED
:1020F000C549420F8C46E40059461443802263448C
:102100001204CB1A14439B46C200002033007B40CC
:102110009A464B460F2B27D8BC499B00CB589F466D
:10212000B246009B022B16D0032B00D18EE2012B6E
:1021300000D0D9E000230024002552461B0523438C
:10214000D20713432800190005B0F0BCBB46B246C5
:10215000A946A046F0BD00240025AA4BEDE7BA46EB
:10216000A04615000090DCE7444500D2C7E100D14D
:10217000C2E101235B429C462E0040460025E34419
:102180002302140E1C431B0C994623041F0C12023D
:1021900049460092019700F04FFE02007A430B047B
:1021A000310C804619438A4207D901235B429C4681
:1021B0000919E0448C4200D807E2881A494600F029
:1021C0003BFE09048C4631046646019A090C4243E1
:1021D000030031438A4204D90919013B8C4200D8DB
:1021E000EDE1881A424612041A4390464146009B8C
:1021F0000E041B0C1F000293009B360C1B04190CD1
:102200000B007343120C7E43039151437A431F0C1E
:10221000BC4676186644B14203D9802149028C46F7
:102220006244310C8A1831041E04360C8E19904217
:1022300002D312D1B54210D24346591E009B9C4690
:1022400065441F009D429B415B421B19C01884429C
:1022500000D2A0E100D19BE18846AE1BB542AD4162
:10226000801A6D42401B844200D1D5E1494600F0FE
:10227000E3FD019A0B044243310C050019438A42E5
:1022800000D96CE1881A494600F0D6FD019A36045F
:1022900042430904360C03000E43B24200D953E115
:1022A0000398B61A02002D041D43029F2B041B0C39
:1022B0005A437B439C46290C4843130C8444634493
:1022C0007943984203D98020400284466144180C27
:1022D00012041B04120C41189B188E4200D2FFE01E
:1022E00000D1FAE001231D43494A5A44002A00DC88
:1022F000AAE06B0700D03DE1ED084346DB0106D5BF
:102300004246444B1A4090468022D2005A44424BE7
:102310009A4200DD1FE743465B071D4343465205D3
:102320005C02240B530D08E75246224300D17BE0A8
:10233000002C00D1FAE0200000F082FD02000B3AF0
:102340001D2301009B1A52460839DA408C40144381
:1023500052468A40314B58449B4683440020D5E680
:102360004B462343984644D0002C00D1CEE02000B9
:1023700000F066FD010002000B391D235B1A49467F
:102380001000D940083884400B004D46234398463E
:1023900085402348831A9B460023994600939AE67A
:1023A0004B46234398461DD108239946063B0025FA
:1023B000834600938FE65246224309D102234946C1
:1023C0001943184B89469C4600240220E3449DE6AD
:1023D00003234A461A43134B91469C465246032018
:1023E000E34493E60C239946093BA04683460093B9
:1023F00071E60423994600239B4601330025009390
:1024000069E6C046FF07000001FCFFFFD057000847
:10241000FF030000FFFFFFFEFE070000F3030000C4
:102420000DFCFFFF01F8FFFF4946012319438946D0
:10243000002401206AE6002380249A4600258A4B66
:1024400024037AE601256D4201239B1A382B00DD17
:1024500070E61F2B00DCBFE01F2149428A1A41466B
:10246000D1400A00202B04D04146804B5B44994068
:102470000D436B1E9D4107232A431D000024154078
:10248000134200D1D4E00F2100231140042900D1D0
:10249000CBE0111D9142924152429B180A00190251
:1024A00000D4C2E001230024002546E680234146F3
:1024B0001B03194208D01C4206D11C432403BA4610
:1024C0001500694B240B38E68024434624031C4343
:1024D0002403B246644B240B2FE6002B00D103E704
:1024E000A619681EA64200D28DE08E4200D2A3E05B
:1024F00000D1B3E00500F5E6AA4200D939E643462B
:10250000DE0758086B081E43ED0739E6484600F021
:1025100097FC01000200153120321C2900DC2CE759
:102520004B46083883400025984632E700F088FC87
:1025300003001A00153220301C2A00DC00E7544644
:10254000083B00229C4005E73619013BB44200D904
:10255000A6E6B24200D8A3E6831E3619A0E6091902
:10256000013D8C4200D98DE68A4200D88AE6851E5C
:10257000091987E60F232B40042B00D1BCE6052365
:102580005B42AB429B4104355B42ED089844B4E6A4
:10259000AF4200D960E6824204D800D05CE6AE4289
:1025A00000D859E602235B429C46009BE0449C46CF
:1025B00065449D429B415B421B19C0184DE68A420F
:1025C00000D80EE6831E09190BE68A4200D8F4E50E
:1025D000831E98460919F0E52549280059448D4085
:1025E00042468A40691E8D414146D840D940024347
:1025F0002A430B00510700D151E70F211140042954
:1026000000D046E74BE705008E4200D06AE6009A0C
:10261000934200D066E667E6164A5A44002A00DC78
:1026200010E701230025984467E65D075B021C0B59
:10263000D2080023154380E50098023D4200824203
:10264000BF417F423C1936190092DDE780244346A2
:1026500024031C432403044B240B6EE5009A9A4286
:10266000EAD30500D3E7C046FF0700003E040000A0
:102670001E040000FF030000F0B557464E464546D5
:10268000DE46E0B598460C034B000600924687B044
:10269000240B5B0DCF0F002B00D15CE1D94A934294
:1026A00000D175E1420FE400144380221204144368
:1026B000D54AC500944663440093002399469B463F
:1026C000434642461E03D20F5B0050469046360BEF
:1026D0005B0D00D120E1CB4A934200D162E1CA49AF
:1026E000420F8C4600996344F6008C4616438022C4
:1026F0009C44120463461643C200002000930099D4
:10270000434601318C4649467B4001930F2926D828
:10271000BE4B890059588F4643460193340015003B
:1027200083465B46022B16D0032B00D103E2012B1C
:1027300000D0CDE0002200240025019B1205224399
:10274000DB071A432800110007B0F0BCBB46B246B5
:10275000A946A046F0BD00240025AA4AEDE7280CB2
:102760002D042D0C2B00110C1204120C534398460F
:1027700013002F00434399464F434F44BB464746FF
:102780000B003F0CBA464343DA440293D14504D9C7
:1027900080277F02B9464B44029353461B0C9B464D
:1027A00053461F0443461B041B0C98463B004344FE
:1027B0000493330C3604360C984633004343994651
:1027C000434643432F009A46434677435D43380CC4
:1027D0004D444519A94503D980235B029946CA4453
:1027E0003F04280C3F0C2D04ED19270C2404240C65
:1027F0000300200050437A4391463A005344059326
:10280000030C9A464A43614349445144AB448945C9
:1028100003D980235B0299464A4400040B0C000C48
:102820000904091820009946434670435C437E43DF
:102830005F43030C9846A41944444A440397A642B4
:1028400004D980235B029846474403972304029EE1
:102850009A46059B5E449846AE42AD4176188E423C
:1028600089410004000C504440446D424719B84669
:10287000934649428946C344D94498428041A84579
:10288000AD4193459241894589416D42404228437B
:10289000240C524249420A43039B00198018C7186E
:1028A0004B46DC0D049B75021D436A1E95414B4649
:1028B000F60D7F0235435A023C431543FB0100D419
:1028C0001CE101216A080D401543E2071543640825
:1028D0004F496144002900DCB0E06B0709D00F22AA
:1028E0002A40042A05D02A1DAA42AD416D4264192E
:1028F0001500E30104D58021464AC9001440614413
:10290000454A914200DD26E76207ED086402490569
:102910001543240B4A0D10E75246324300D17FE0A5
:10292000002E00D1DCE0300000F08AFA02000B3A01
:102930001D2301009B1A52460839DA408E40164387
:1029400052468A40009B3549181A03008C4663445E
:1029500000200093D3E6250005434AD0002C00D187
:10296000B0E0200000F06CFA010002000B391D23DA
:1029700010005B1A3100350008388440D94085408A
:102980000C432648831A0093002399469B4697E6FA
:102990000500254326D108220093022300249146F6
:1029A0009B468DE65246009B324310D115490026C6
:1029B0008C4663444946009302231943894602200A
:1029C0009DE65B460197022B00D0ADE6C3E60D4ABB
:1029D0000320944663444A46009303231A439146D6
:1029E00052468CE60C2200930323050091469B4639
:1029F00066E60423994600230093013300249B4696
:102A00005EE6C046FF07000001FCFFFF105800080B
:102A1000FF030000FFFFFFFEFE0700000DFCFFFFAD
:102A200049460123194389460026012067E6002311
:102A300080240025434A019324037EE60120401AA6
:102A4000382800DD76E61F285BDD1F222300524276
:102A5000511ACB401900202803D03B4A62449440CD
:102A600025436A1E95412A000A4307210D000024D0
:102A7000154011425BD00F2100241140042953D08E
:102A8000111D914292415242A4180A0023024BD5D3
:102A900001220024002550E680231B031C4209D09C
:102AA0001E4207D133431C0343461500240B254A1D
:102AB000019342E68022120314432403214A240B8B
:102AC00001973AE600F0BCF901000200153120320E
:102AD0001C2900DC4BE7340008380025844050E70F
:102AE00000F0AEF903001A00153220301C2A00DC79
:102AF0001EE75646083B00229E4023E7009B9C466B
:102B0000E6E61249220061442E008D408A40C6400C
:102B1000691E8D4132432A43C4405307B6D00F216A
:102B200011400429ACD1B1E765076402240BD20837
:102B30001543002201E68022120314432403014AB4
:102B4000240BFAE5FF0700003E0400001E0400000D
:102B50000A0030B5134C530009030500090B00208F
:102B60005B0DD20FA34204DD0F48834202DD0F4B01
:102B7000D01830BD8020400301430D48C01A1F28E3
:102B800008DD0C48C31AD9400B005842002AF0D186
:102B90001800EEE7084CC540A446634499400B007A
:102BA0002B43F2E7FE0300001D040000FFFFFF7F40
:102BB0003304000013040000EDFBFFFF70B5002894
:102BC00016D0C317C5185D40C40F280000F038F9AF
:102BD000114A121A0A2816DC03002E0015339E40F3
:102BE0000B23181AC54052052D032D0B530D03E07E
:102BF00000240023002500261B052B43E407234364
:102C00003000190070BD0B38854052052D03002699
:102C10002D0B530DF0E7C0461E04000002004B00D0
:102C2000F0B55B0D0C033D4E640A400F5F1CC90FED
:102C30000443D50037420AD039481E18FE2E16DD4F
:102C4000FF200024C0052043C9070843F0BD002B26
:102C500006D12C4326D005229201540AD8B2F1E7BE
:102C60002543EDD08020C0030443FF20EAE7002E77
:102C70001BDD9201531E9A41E4006D0F22432A434B
:102C8000530748D00F231340042B00D00432802375
:102C9000DB0413403FD0701CFE2ED1D09201540AA9
:102CA000C0B2CFE700200024CCE73200173222DB8D
:102CB0008020000420431E24A41B1F2C1DDD0222A3
:102CC0005242961B0200F2401600202C04D0154AF6
:102CD00094466344984005432A00531E9A41324368
:102CE00000265307CED180241300E40401202340A2
:102CF0002242D3D1B0E70023ADE70B4A94462A0025
:102D0000E24014002A0063449A409840551EAA41AC
:102D100002432243E4E733009EE7C046FE0700007B
:102D200080FCFFFFA2FCFFFF82FCFFFF00224308A4
:102D30008B4274D303098B425FD3030A8B4244D383
:102D4000030B8B4228D3030C8B420DD3FF220902C5
:102D500012BA030C8B4202D31212090265D0030B84
:102D60008B4219D300E0090AC30B8B4201D3CB037A
:102D7000C01A5241830B8B4201D38B03C01A5241BC
:102D8000430B8B4201D34B03C01A5241030B8B42BE
:102D900001D30B03C01A5241C30A8B4201D3CB02A9
:102DA000C01A5241830A8B4201D38B02C01A52418E
:102DB000430A8B4201D34B02C01A5241030A8B4291
:102DC00001D30B02C01A5241CDD2C3098B4201D3A9
:102DD000CB01C01A524183098B4201D38B01C01A27
:102DE000524143098B4201D34B01C01A524103099E
:102DF0008B4201D30B01C01A5241C3088B4201D34D
:102E0000CB00C01A524183088B4201D38B00C01AF9
:102E1000524143088B4201D34B00C01A5241411A20
:102E200000D20146524110467047FFE701B500202D
:102E3000FFF712F802BDC0460029F7D076E77047C9
:102E40001C2101231B04984201D3000C10391B0ADA
:102E5000984201D3000A08391B09984201D300099E
:102E6000043902A2105C40187047C04604030202F5
:102E70000101010100000000000000000EB417B5C0
:102E8000041E04D08369002B01D100F0E5FB06ABE2
:102E90002000059AA168019301F01EFA1EBC08BC2F
:102EA00003B018470FB40B4B13B51C68002C05D0AA
:102EB000A369002B02D1200000F0CEFB05AB20005F
:102EC000049AA168019301F007FA16BC08BC04B08B
:102ED0001847C0460400002070B505000E00002809
:102EE00004D08369002B01D100F0B6FBAB69AC685C
:102EF000002B02D1280000F0AFFB2D4B9C4222D1C9
:102F00006C68636EDB0705D4A3899B0502D4A06DB2
:102F100000F07EFCA3891B0702D52369002B29D171
:102F20002100280000F0AAF9002823D001256D42D5
:102F3000636EDB0705D4A3899B0502D4A06D00F066
:102F40006DFC280070BD1B4B9C4201D1AC68D8E7DA
:102F5000194B9C42D5D1EC68D3E70136A360002B16
:102F600004DAA2699A4216DC0A2914D023685A1C92
:102F700022601970A3683178013B0029EDD1A3606C
:102F8000002B0FDA280022000A3100F003F90A258D
:102F9000431CCDD1CAE72200280000F0FBF8431CF7
:102FA000E8D1C3E70A2523685A1C22601D70BFE7D9
:102FB00070580008905800085058000810B5034B8E
:102FC00001001868FFF788FF10BDC046040000200C
:102FD0000CB400B59DB00291069109491EAB079152
:102FE0000491084904CB059102A9019300F064FE05
:102FF0000023029A13701DB008BC02B01847C046E7
:10300000FFFFFF7F0802FFFF0EB400B50B499CB025
:103010001DAB02900690079104910948094904CB21
:103020000591006802A9019300F046FE0023029A70
:1030300013701CB008BC03B01847C046FFFFFF7FE9
:10304000040000200802FFFF0EB430B581239CB0BD
:103050006A461FAC9B0020CC93820290069000F041
:1030600091F80B4B6A460B93002303900790094895
:103070000F931493013BD38202A923002A00006816
:10308000019400F075FF1CB030BC08BC03B01847B9
:1030900011310008040000200CB470B581239CB0ED
:1030A0006A4620AC05009B00080040CC9382029148
:1030B000069100F067F80B4B6A460B9300230F93C1
:1030C0001493013B03900790D38228002300320021
:1030D00002A9019400F04CFF1CB070BC08BC02B007
:1030E0001847C0461131000870B50C000E25495F25
:1030F00001F01CFD002803DB636D1B18636570BDC8
:10310000A389024A1340A381F9E7C046FFEFFFFFFE
:1031100000207047F8B51F008B8905000C001600D1
:10312000DB0505D50E23C95E0022022300F078FBE3
:10313000A389054A28001340A38132000E23E15ED3
:103140003B0000F087F8F8BDFFEFFFFF70B50C0003
:103150000E25495F00F064FBA389421C03D1054A98
:103160001340A38170BD802252011343A381606587
:10317000F8E7C046FFEFFFFF10B50E23C95E00F071
:10318000F5F810BD0023C25C0133002AFBD1581EA4
:1031900070470000F8B505000E001400002804D0A8
:1031A0008369002B01D100F057FA224B9C422ED1AB
:1031B0006C68A369A360A3891B0732D52369002B20
:1031C0002FD023682269F7B2981A6369F6B2834256
:1031D00005DC2100280000F067F9002827D1A3684A
:1031E0000130013BA36023685A1C22601F70636991
:1031F000834204D0A389DB0707D50A2E05D121001D
:10320000280000F051F9002811D13000F8BD0A4B18
:103210009C4201D1AC68CCE7084B9C42C9D1EC6818
:10322000C7E72100280000F029F80028C9D00126AE
:103230007642EAE770580008905800085058000895
:1032400010B5034B0A0001001868FFF7A3FF10BD7B
:103250000400002070B50400080011001A000023CB
:10326000054D2B60FEF7E4FC431C03D12B68002BBB
:1032700000D0236070BDC046CC010020374B70B534
:103280001D6806000C00002D05D0AB69002B02D193
:10329000280000F0E1F9324B9C420FD16C680C23FE
:1032A000E25E93B211072DD4D90611D4092301206F
:1032B000336037331343A381404270BD294B9C4296
:1032C00001D1AC68EBE7284B9C42E8D1EC68E6E71B
:1032D0005B0713D5616B002908D023004433994262
:1032E00002D0300000F024FB002363632422A38972
:1032F0009343A38100236360236923600823A28989
:103300001343A3812369002B0BD1A0218022A38921
:10331000890092000B40934203D02100300000F05E
:10332000BBFA0C22A35E01201A0099B202400342AC
:103330000FD00022A26062695242A261002022697D
:103340008242BAD10A06B8D540221343A38101387C
:10335000B3E7880700D46269A260EFE704000020A9
:10336000705800089058000850580008002370B5A5
:10337000064D040008002B60FEF73BFB431C03D105
:103380002B68002B00D0236070BDC046CC0100200C
:10339000F7B58B8905000C001A075FD44A68002A2C
:1033A00004DC0A6C002A01DC0020FEBDE76A002F65
:1033B000FAD0002280212E682A601A0049010A40B2
:1033C0000B4234D0606DA3895B0706D56368C01AD1
:1033D000636B002B01D0236CC01A0200216A00230A
:1033E0002800E76AB847A189431C06D12B681D2B2A
:1033F00031D82C4ADA40D3072DD5002363602369E6
:103400002360CB0405D5431C02D12B68002B00D1CF
:103410006065616B2E600029C6D023004433994259
:1034200002D0280000F084FA00206063BDE7012389
:103430002800216AB847431CC5D12B68002BC2D095
:103440001D2B01D0162B01D12E60ADE74023A289A0
:103450001343A381A9E740230B43FAE70F69002F29
:10346000A2D00A680F60D21B019200229B0700D1F4
:103470004A69A260019B002B00DC95E73A00280016
:10348000019B216AA66AB047002806DC4023012080
:10349000A28940421343A38187E7019B3F181B1A6F
:1034A0000193E7E7010040200B6970B505000C00AF
:1034B000002B02D10025280070BD002804D08369AC
:1034C000002B01D100F0C8F8144B9C421BD16C6852
:1034D0000C22A35E002BEDD0626ED20704D49B05B4
:1034E00002D4A06D00F094F928002100FFF750FFEE
:1034F000636E0500DB07DED4A3899B05DBD4A06DDA
:1035000000F08CF9D7E7064B9C4201D1AC68DFE7AD
:10351000044B9C42DCD1EC68DAE7C04670580008E6
:103520009058000850580008010010B5002805D137
:10353000054B0649186800F046F910BD044B1868A1
:10354000FFF7B2FFF9E7C046B0580008A9340008F9
:1035500004000020002310B5040003604360836072
:10356000818143661900C28103614361836108223E
:103570005C3000F0D5F9054B24626362044BA36212
:10358000044BE362044B236310BDC046E9300008DE
:10359000153100084D3100087931000810B5024995
:1035A00000F011F910BDC046A9340008436E10B5F3
:1035B000DB0705D483899B0502D4806D00F028F9D0
:1035C000002010BD436E10B5DB0705D483899B0531
:1035D00002D4806D00F022F9002010BD70B568257E
:1035E0004A1E55430E002900743100F00DFA041EE6
:1035F00008D000212A00016046600C30A0606832CB
:1036000000F08EF9200070BD10B5024B1868FFF76E
:10361000C5FF10BDB058000810B5024800F0F8F81A
:1036200010BDC046D601002010B5024800F0F6F8E3
:1036300010BDC046D601002010B5024800F0E8F8E1
:1036400010BDC046D701002010B5024800F0E6F8D2
:1036500010BDC046D701002013B50400FFF7ECFFF2
:10366000A369002B02D0FFF7EFFF13BDA364E3644F
:103670002365134B134A1B68A2620193A34201D135
:103680000123A361200000F01FF86060200000F01B
:103690001BF8A060200000F017F800220421E06071
:1036A0006068FFF757FF01220921A068FFF752FF6A
:1036B00002221221E068FFF74DFF0123A361D2E748
:1036C000B05800089D350008F8B50700FFF7A4FFC3
:1036D0001F4B1E68B369002B02D13000FFF7BCFFFF
:1036E0004836B4687368013B04D53368002B22D098
:1036F0003668F6E70C22A55E002D1AD12000154B86
:103700005830E360656600F07FF8FFF78DFF20001A
:10371000082229002560A560656025616561A561B5
:103720005C3000F0FDF86563A563A564E5642000E6
:10373000F8BD6834D7E704213800FFF74FFF041EB7
:103740003060D5D1FFF770FF0C233B60EFE7C04638
:10375000B05800080100FFFF10B5FFF75DFF034BF5
:103760000349186800F014F810BDC046040000209A
:10377000AD35000810B5044B0449186800F008F88E
:10378000FFF752FF10BDC04604000020C5350008F9
:10379000F7B54830040000260191A5686768013F2D
:1037A00004D52468002CF8D13000FEBDAB89012B74
:1037B00007D90E22AB5E013303D02800019B984746
:1037C00006436835EBE7F7B50400060000270191D2
:1037D00048346368A5680093009B013B009304D5BF
:1037E0002468002CF5D13800FEBDAB89012B08D927
:1037F0000E22AB5E013304D029003000019B9847B4
:1038000007436835E8E7704770477047704770476F
:1038100070470120704701207047704770470000D3
:1038200070B50400080011001A000023054D2B603C
:10383000FEF73AF9431C03D12B68002B00D023601C
:1038400070BDC046CC01002070B50E001D000E23D7
:10385000C95E140096B0002908DA0C22B35E00227B
:103860002A601B0611D48023DB000FE06A4601F0BA
:10387000F9FB0028F1DBF02301991B021940054BED
:10388000C9184B4259412960EDE7402300202360CD
:1038900016B070BD00E0FFFFF7B502268B8905006A
:1038A0000C00334206D023004733236023610123F9
:1038B0006361F7BD6A4601ABFFF7C6FF00990700D9
:1038C000280000F0A1F8002808D10C22A35E9A0578
:1038D000EFD4032293431E43A681E4E70F4BAB6270
:1038E0008023A28920601343A381009B2061636130
:1038F000019B002B0DD028000E23E15E01F02CFD72
:10390000002806D00322A38993431A0001231343FE
:10391000A381A0890743A781CBE7C0469D35000856
:1039200003008218934200D1704719700133F9E700
:1039300070B50500002910D00C1F2368002B00DA99
:10394000E418280001F042FD1D4A1368002B05D140
:1039500063601460280001F041FD70BDA34208D9E6
:10396000216860188342F3D118685B6841182160B0
:10397000EEE71A005B68002B01D0A342F9D9116869
:103980005018A0420BD120680918501811608342CA
:10399000E0D118685B68411811605360DAE7A04213
:1039A00002D90C232B60D5E721686018834203D12C
:1039B00018685B684118216063605460CAE7C046BC
:1039C000DC01002070B50F4E0D00316804000029A5
:1039D00002D101F0BFF830602900200001F0BAF8F0
:1039E000431C0AD00323C51C9D43A84207D0291AB3
:1039F000200001F0AFF8431C01D101256D422800E1
:103A000070BDC046E0010020F7B50322CB1C9343F4
:103A1000083306001F000C2B32D20C27B94231D8D4
:103A2000300001F0D3FC324D2B681C00002C2ED14D
:103A300039003000FFF7C6FF0400431C1ED12C687C
:103A40002500002D4AD123682900E3183000019396
:103A500001F080F8019B834243D123680337FF1AAA
:103A600003239F4308370C2F00D20C273900300066
:103A7000FFF7A8FF431C34D02368DF19276013E049
:103A8000002BCBDA0C23002533602800FEBD226812
:103A9000D11B20D40B2917D9E2192760A34211D1D9
:103AA0002A606368116053603000250001F096FCC5
:103AB00007220B35231D9543EA1A9D42E5D05B1B77
:103AC000A350E2E75A60ECE76268A34201D12A60A2
:103AD000EAE75A60E8E723006468A7E72C006D680E
:103AE000AFE70C233000336001F078FCCDE7C0462F
:103AF000DC010020F0B58E6885B007000C00039251
:103B000001939E423CD890238A89DB001A4234D02C
:103B10000969236860695B1A029303234343DD0F3D
:103B2000ED18019B029801331B186D10AB4200D9B0
:103B30001D00530532D529003800FFF765FF061E2A
:103B400009D10C233B6040230120A289404213434A
:103B5000A38105B0F0BD029A216901F01AFCA38986
:103B6000144A1A4080231343A381029B2661F6184E
:103B700026606561019EED1AA560019B9E4200D9F9
:103B8000019E32000399206801F00CFCA36800201C
:103B90009B1BA36023689E192660DAE72A00380081
:103BA00001F024FC061EE0D138002169FFF7C0FEB9
:103BB000C7E7C0467FFBFFFFF0B5936887B00C00F6
:103BC00017000290002B65D0136803930023059320
:103BD0000193019B002B2DD0A6689E4249D89023CB
:103BE000A289DB001A4241D00320216923685B1AB5
:103BF000049363694343DD0FED18049B019801337F
:103C00001B186D10AB4200D91D00530546D5290085
:103C10000298FFF7F9FE061E16D10C23029A012026
:103C200013604023A28940421343A3810023BB6059
:103C30007B6031E0039B1B680593039B5B680193EA
:103C4000039B08330393C4E7049A216901F0A1FBA5
:103C5000A389184A1A4080231343A381049B266139
:103C6000F61826606561019EED1AA560019B9E42D3
:103C700000D9019E32000599206801F093FBA368EA
:103C8000019A9B1BA36023689E19BB6826609B1A40
:103C9000BB60CFD10020786007B0F0BD2A00029849
:103CA00001F0A4FB061ED9D121690298FFF740FE5E
:103CB000B3E7C0467FFBFFFFF0B5A1B003901D0046
:103CC0008B890F0016001B0611D50B69002B0ED136
:103CD0004021FFF799FE38603861002805D10C2398
:103CE000039A0138136021B0F0BD40237B610023AB
:103CF00008AC6361203363761033A37607953500F3
:103D00002B78002B01D0252B47D1AB1B0593B54257
:103D10000CD0320039000398FFF7ECFE431C00D1B1
:103D2000AEE06269059B9446634463612B78002B87
:103D300000D1A5E0012200235242626004A954325E
:103D400052186E1C2360E360A3601370A365052204
:103D50003178544801F012FB751C00281FD12268ED
:103D6000D30604D5532304A95B1820211970130727
:103D700004D5532304A95B182B21197033782A2BFF
:103D800016D0350000210A20E3682A786E1C303AEC
:103D9000092A4ED9002911D117E00135B0E7414B6E
:103DA0002268C01A0123834013432E002360CEE70C
:103DB000079B191D1B680791002B01DB0B9304E087
:103DC0005B42E3600223134323602B782E2B0AD13E
:103DD0006B782A2B35D1079B02351A1D1B68079279
:103DE000002B2BDB0993304E03223000297801F0A1
:103DF000C5FA002806D04023801B83402268013585
:103E0000134323602978062228486E1C217601F08E
:103E1000B5FA00283CD0264B002B25D10722079B62
:103E200007339343083307936369049A9B186361CC
:103E300065E74343350001219B18A6E701235B4258
:103E4000D0E700230A201A000135636029786E1C30
:103E50003039092903D9002BC5D00992C3E7424361
:103E6000350001235218F1E707AB00933A00210017
:103E7000104B039800E000BF0490049B0133D3D1A2
:103E8000BB890D985B0600D42DE7012040422AE74C
:103E900007AB00933A002100064B039800F0D2FBD9
:103EA000EAE7C046B4580008BA580008BE580008EF
:103EB00000000000F53A000870B514004B1C03D157
:103EC00001256D42280070BD938920229343626BC7
:103ED000A381CEB26368CDB2002A10D0A26B9A4201
:103EE00007DD2368013B23601E7063680133636054
:103EF000E8E7210000F0CCFF0028F2D0E0E72169DC
:103F00002268002907D0914205D2511E0878A842A4
:103F100001D12160EAE72364230044336363032370
:103F2000A36323004633E2631E7023600123DEE7B0
:103F300010B50C00496B00290ED023004433994280
:103F400001D0FFF7F5FC0020236C606363608342BF
:103F500002D0E36B236010BD23690120236000239E
:103F6000A289636020331343A3814042F3E700003A
:103F7000F0B5B84C0600A5440C00002146914791CD
:103F800003A94891BE21B448490043AD6850C025FB
:103F9000B2496D0043A8415102931378002B00D120
:103FA00055E1AF490825C85C0821571C014028424B
:103FB00020D06368002B12DD2368A9491A788A5C37
:103FC00008210A4201D13A00E7E7479A01330092FB
:103FD0000132479262682360013A6260E9E7C022D9
:103FE00043AB52009B5821003000009398470028B3
:103FF000E2D0E8E71D00252B64D145914391537829
:104000002A2B02D11A3B4393971C3D000A222978A0
:104010006B1C00930B00303B092B1FD9914F0322DF
:10402000380001F0ABF9002807D00123C01B834002
:10403000439A009D1343019243936F1C2D78782D72
:1040400007D8572D12D8252D3CD036D8002D00D1B9
:10405000FAE003234993073344936DE0459B009DA9
:1040600001935343303B5B184593D0E72800583801
:104070002028EED801F0F2F95100EDFFEDFF8700A6
:10408000EDFFEDFFEDFFEDFFEDFFEDFFEDFF950027
:104090007D00240024002400EDFF7F00EDFFEDFFF4
:1040A000EDFFEDFF9F0083004B00EDFFEDFF9D0056
:1040B000EDFF7D00EDFFEDFF5100453D022DC8D81D
:1040C00005236CE06368002B0EDD23681A78AA4292
:1040D00000D0BCE0013362682360479B013A009343
:1040E0000133626047936EE7C02243AB52009B5896
:1040F00021003000009398470028E6D04698002819
:1041000000D09DE00138A5239B009D44F0BD439B5A
:1041100000932023009A13434393439B00938023EF
:10412000009A9B0013434393102344936E23AB42A6
:10413000AD416D42033549956368002B4ADD439BD1
:1041400000935B0606D4236845491A788A5C0821E7
:104150000A424AD1499B022B5EDC2200300002ABAE
:1041600043A900F081FB012871D0022800D02AE782
:10417000C4E70A23D9E7002303254493DBE7082398
:1041800004254493D7E7390003A800F0F5FC439BCE
:10419000070000934023009A13434393012349935C
:1041A000CAE7439B00934023009A134343930023A1
:1041B000F5E70223F3E74398C30600D503E7029B24
:1041C000479A191D02911B68C50701D51A80FAE6A6
:1041D0001A60F8E6C02243AB52009B582100300021
:1041E000009398470028AAD088E7479A00920132A6
:1041F00047926268013A6260002A02DD013323605F
:10420000A1E7C02243AB52009B582100300000932D
:104210009847002897D071E7042B06DC2200300075
:1042200002AB43A900F07EFB9DE70F4B002B00D1B2
:10423000C9E62200300002AB43A900E000BF92E7CC
:10424000A3895B0600D45EE7012040425BE7469805
:1042500059E7C0466CFDFFFFB93E0008313F00083A
:1042600011590008BA58000800000000936810B502
:10427000013B9360002B04DA9469A34207DB0A290F
:1042800005D01368581C10601970080010BDFEF7A7
:1042900081FF0100F9E7F8B506000F001400D518FA
:1042A000AC4201D1002007E021783A003000FFF74E
:1042B000DDFF0134431CF3D1F8BD936810B5140041
:1042C000002B02D11800536010BD00F0DDFE00236A
:1042D000A3606360F8E70000F0B5A1B006000C0031
:1042E0001F000392002804D08369002B01D1FFF73F
:1042F000B3F98E4B9C421CD17468636EDB0705D406
:10430000A3899B0502D4A06DFFF782FAA3891B073E
:1043100002D52369002B1DD121003000FEF7AEFF2E
:10432000002817D0636EDB070DD50120404221B075
:10433000F0BD7F4B9C4201D1B468DEE77D4B9C42CF
:10434000DBD1F468D9E7A3899B05EED4A06DFFF714
:1043500065FAEAE7002308AD6B6120336B76103312
:10436000AB760797039F3B78002B01D0252B4ED1CE
:10437000039BFB1A0593039B9F420DD0059B2100D5
:104380003000039AFFF787FF431C00D1B5E06A694C
:10439000059B944663446B613B78002B00D1ACE0F5
:1043A00001227B1C0393002352426A6004A9543209
:1043B00052182B60EB60AB601370AB65039B05225A
:1043C00019785D4800F0DAFF039B5F1C002820D1BC
:1043D0002A68D30604D5532304A95B182021197039
:1043E000130704D5532304A95B182B211970039BD1
:1043F0001B782A2B16D00021EB68039F3A78781C93
:10440000303A8446092A4FD9002911D117E00137E3
:10441000A9E7494B2A68C01A0123834013432B6044
:104420000397CBE7079B191D1B680791002B01DB46
:104430000B9304E05B42EB60022313432B603B7859
:104440002E2B0AD17B782A2B37D1079B02371A1DD6
:104450001B680792002B2DDB09930322397837481C
:1044600000F08CFF002807D0344B2A68C01A402384
:104470008340134301372B6039787B1C0622304878
:104480000393297600F07AFF002845D02D4B002BAE
:1044900027D10722079B07339343083307936B69A0
:1044A000049A9B186B615DE70A214B4367469B1892
:1044B0000939A3E701235B42CEE700231A00013745
:1044C0006B603978781C30398446092903D9002B70
:1044D000C3D00992C1E70A235A4367465218093BE1
:1044E000EFE707AB0093220029003000164B00E0F5
:1044F00000BF0490049B0133D1D1636EDB0705D468
:10450000A3899B0502D4A06DFFF788F9A3895B06F8
:1045100000D50AE70D980AE707AB009322002900AF
:104520003000094B00F08EF8E3E7C04670580008F1
:104530009058000850580008B4580008BA580008AD
:10454000BE580008000000009742000810B5130094
:104550000A00010002480068FFF7BEFE10BDC04619
:1045600004000020F7B5150001938A680B690C0060
:104570000090934200DA130022002B60433212783D
:10458000002A01D001332B6023689B0602D52B68DB
:1045900002332B602268062317001F401A4227D0DF
:1045A000230043331B785A1E93412268920630D46D
:1045B000220001990098089E4332B047431C25D041
:1045C000062320682A68E16800250340042B03D1F4
:1045D0008D1AEB43DB171D40A3682269934201DD6E
:1045E0009B1AED180027BD4220D1002010E00137B2
:1045F000E3682A689B1ABB42D2DD2200012301999D
:104600000098089E1932B047431CF0D10120404267
:10461000FEBD3020E1184331087021005A1C45319D
:104620000978A218433202331170C1E72200012336
:1046300001990098089E1A32B047431CE6D0013712
:10464000D1E70000F0B58BB006920A004332079321
:10465000059004920A7E0C00109B782A07D8622AE3
:1046600009D8002A00D1C1E0582A00D18CE02600E8
:104670004236327022E0100063381528F7D800F077
:10468000EDFE16001F00F6FFF6FFF6FFF6FF1F0017
:10469000F6FFF6FFF6FFF6FFA80036009A00F6FFD9
:1046A000F6FFB900F6FF3600F6FFF6FF9E00260083
:1046B0001A684236111D1960136833700123A7E090
:1046C000086819680A1D05060BD50D681A60002DCB
:1046D00003DA2D23049A6D421370614B0A2703936A
:1046E0001BE00D681A604106F1D52DB2EFE70D68A9
:1046F0001968081D18602E0601D50D6803E06D06C7
:10470000FBD50D68ADB2564B082703936F2A00D036
:1047100002372300002243331A706368A360002B22
:1047200003DB0422216891432160002D02D1049E05
:10473000002B0CD0049E28003900FEF77DFB039B64
:10474000013E5B5C33702B0005009F42F3D9082FBC
:1047500009D12368DB0706D563682269934202DC2E
:104760003023013E3370049B9B1B2361079B210078
:1047700000930598069B09AAFFF7F4FE431C4CD151
:10478000012040420BB0F0BD45310A70344A03921B
:104790001A68216820CA1A60080616D5CB0702D508
:1047A0002023194321601027002DB2D12023226835
:1047B0009A432260ADE7202209680A432260220062
:1047C000782145321170274AE1E74806E6D5ADB2B7
:1047D000E4E71A680D68101D4969186013682E0611
:1047E00001D5196002E06D06FBD519800023049EF7
:1047F0002361BBE71A68111D19601668002130009B
:10480000626800F0BBFD002801D0801B6060636817
:1048100023610023049A1370A8E7236932000699E4
:104820000598079DA847431CAAD023689B0715D469
:10483000099BE0689842A5DA1800A3E7220001234B
:1048400006990598079E1932B047431C98D0013548
:10485000E368099A9B1AAB42F0DCE9E70025F7E729
:10486000C5580008D6580008F7B515008A680C002E
:104870000190002A05D189690132002900D0023A4D
:10488000A2602268D20603D41A68111D1960176845
:104890000026A069002813D0012808D12B6862697E
:1048A0001B78D35C002B0BD1002E38D026E00228D9
:1048B00024D12B681A4A1B78D35C082213421DD1DD
:1048C000102223680136134203D12B681B783B70FA
:1048D00001372A686B6801322A60A268013B013AFD
:1048E0006B60A260002A09D0002BD2DCC0235B00E1
:1048F0002900E358019898470028CAD0226810235D
:10490000110019401A4206D1E3680133E360A3693C
:10491000002B00D03970002023699E192661FEBD4E
:1049200011590008F0B50C008DB00293794B1600B8
:10493000059009AA23CB23C2774B0693A369032BC7
:1049400001D0764B0693AE220020A3685200591E78
:104950000490914205D95E3BFF3B04935E23FF33F5
:10496000A36023001C330193D023002722681B017E
:1049700013432360019B0393336809A81978BB0094
:104980000222185800F0FAFC00282BD0012F62D127
:104990006368002B06D1083322686360F933FF3364
:1049A000134323605E4B226813402360A3685A1EA2
:1049B000A260002B16D033685A1C32601B78039A11
:1049C00013707368551C013B73600395002B09DC61
:1049D000C0235B00E35831000598079398470028EF
:1049E00000D081E00137032FC6D16368002B01D1CD
:1049F0000A3363601021002763686069C91A494B54
:104A0000C91800F0B9F8039DA36822680393002B2E
:104A100041D03168636908781B5C002B3BD030289B
:104A200029D180231B011A4225D0049B0137002B7A
:104A300005D01A00039B013A01330492A360736806
:104A4000013B7360002B1DDD336801333360A368C5
:104A5000013BA360D8E7022FA8D1C02180232268A0
:104A6000C90011409B009942BFD1F13BFF3B6360FD
:104A7000F033134399E72C4B134023600B782B70D2
:104A80000135DCE7C0235B00E35831000598039350
:104A900098470028DBD02368DB050ED5019B9D429B
:104AA00007D9BE23013D5B0032002978E358059801
:104AB0009847019B01209D4229D0216810230A00BC
:104AC0001A4019421CD12A70636801990598069E04
:104AD000B047029B21681B688A0607D51A1D0299F8
:104AE0000A601B68186008E00027D4E71A1DCE078B
:104AF000F5D502990A601B681880E3680133E3600A
:104B00000020019BED1A2369EF19DF1927610DB011
:104B1000F0BDC046045900080D4D0008594E00086C
:104B2000FFFAFFFFF0580008FFF6FFFF70B5040022
:104B3000080011001A000023054D2B60FDF73CF81A
:104B4000431C03D12B68002B00D0236070BDC046EE
:104B5000CC010020002370B5064D040008002B6036
:104B6000FCF7F8FF431C03D12B68002B00D0236017
:104B700070BDC046CC010020F0B50B7804005E2B60
:104B80000CD0481C00212200651CFF351170013239
:104B9000AA42FBD1002B05D10138F0BD4B78881C0F
:104BA0000121F0E701222D2651400200E154157841
:104BB000501C2D2D09D05D2DEFD0002D01D11000FE
:104BC000EBE72B00F1E73300EFE755785D2DFAD0E6
:104BD000AB42F8DC18000232013021548542FBDC84
:104BE00000205F1CAB4201DAE81A01383B18DEE70F
:104BF000F0B587B01E00059001910292012B45D0BF
:104C00000B00242E42D83F4A082194461A006046E1
:104C100014780133005D1D0007000F400842F5D1F4
:104C20002D2C3AD101271C78951C002E65D0102E12
:104C300009D1302C07D120222B789343582B57D100
:104C400010266C780235304B3100FB1818000393A6
:104C5000FEF7F2F800230122844618000491524224
:104C60002100303909291DD80C00A64228DD002B6F
:104C700024DB1300844506D302D10499A14202DB50
:104C80000123704320182C780135E9E700F0E4F99E
:104C900016230360002007B0F0BD2B2CC5D11C7873
:104CA000951CC2E721004139192901D8373CDCE7BE
:104CB00021006139192903D8573CD6E71300E2E7F0
:104CC000002B09DA2223059A03981360029B002B1C
:104CD000E1D06B1E019307E0002F00D04042029A02
:104CE000002AD8D0002BF4D1029B019A1A60D2E797
:104CF0003024002EA7D10836A5E7302C9BD00A26F9
:104D0000A1E7C04611590008FFFFFF7F10B5FFF76C
:104D10006FFF10BD10B513000A00010002480068C3
:104D2000FFF766FF10BDC0460400002010B5130059
:104D30000A00010002480068FFF75AFF10BDC04694
:104D400004000020F0B587B00292424A1E00019193
:104D50000B009446082105901A0060461478013330
:104D6000005D1D0007000F400842F5D12D2C3AD1FF
:104D700001271C78951C002E67D0102E09D1302CED
:104D800007D120222B789343582B59D110266C78C9
:104D90000235012031004042FDF7C8FF0390012099
:104DA00031004042FEF748F800230491012101221E
:104DB00018008C46524221003039092918D80C00BD
:104DC000A64223DD002B1FDB03991300814207D38A
:104DD00003D104991300A14202DB634670432018FB
:104DE0002C780135E7E72B2CC5D11C78951CC2E740
:104DF00021004139192901D8373CE1E72100613907
:104E0000192903D8573CDBE71300E9E7002B09DA3F
:104E100022230120059A40421360029B002B09D1F6
:104E200007B0F0BD002F00D04042029A002AF7D010
:104E3000002B01D06B1E0193029B019A1A60EFE7D1
:104E40003024002EA5D10836A3E7302C99D00A26AD
:104E50009FE7C0461159000810B5FFF773FF10BD5A
:104E600010B513000A00010002480068FFF76AFF4E
:104E700010BDC0460400002010B513000A00010058
:104E800002480068FFF75EFF10BDC0460400002026
:104E90000B00F7B54D6B44330C009D421CD18026AE
:104EA000F6003100FEF7B0FD002802D1012040429B
:104EB000FEBD23006063A66346331A78104BC254CC
:104EC000230045331A780F4BC2542A780E4BC25434
:104ED000C01820600020EBE78E6B290073001A00D9
:104EE000019300F083FA051EE0D08719010032001B
:104EF000380000F04EFA019B27606563A363E9E781
:104F0000FF030000FE030000FD030000F8B50600EB
:104F10000D0014004B1C03D101256D422800F8BD83
:104F2000002804D08369002B01D1FEF795FB424B8A
:104F30009C421CD17468636EDB0705D4A3899B0572
:104F400002D4A06DFEF764FC2022A38993431BB218
:104F5000A3819AB25B072DD4D30612D4636EDB070C
:104F6000DAD49305D8D4A06DFEF758FCD4E7334BC0
:104F70009C4201D1B468DEE7314B9C42DBD1F4683E
:104F8000D9E708273A4211D021003000FEF78CFA09
:104F9000002806D0636EDB07BED4A3899B05BBD473
:104FA000E1E7A389A060BB43A381A0610423A28998
:104FB0001343A381626BEFB26368EDB2002A1AD08B
:104FC000A26B9A4205DC21003000FFF761FF002848
:104FD000E0D12368013B23601F7063680133636085
:104FE000636EDB079AD4A3899B0500D596E7A06D75
:104FF000FEF714FC92E70122666E206921683240B8
:1050000000280CD088420AD2481E0678AE4206D14B
:10501000206001336360002A00D07FE7E3E7236468
:105020002300443363630323A36323004633E16314
:105030001F7023600123EDE77058000890580008A6
:105040005058000810B5034B0A0001001868FFF71C
:105050005DFF10BD04000020014B18687047C0467A
:1050600004000020002370B5064D04000800110064
:105070002B60FCF7E5FC431C03D12B68002B00D010
:10508000236070BDCC010020F0B5936887B00C00A0
:1050900017000390002B02D1002007B0F0BD8B89D0
:1050A0001B0759D50B69002B56D03B68022202938F
:1050B000A38918001040134275D1012201211A4022
:1050C0000B4200D1ADE0060001900490049B002B40
:1050D00000D116E100280CD11A000A21300000F09E
:1050E0004DF9049B01330193002802D00130831B4A
:1050F0000193019B049A0593934200D9059220687D
:1051000022696369904200D804E1A2689D18059A5B
:10511000AA4200DCFEE031002A0000F043F92368D7
:1051200021005B1903982360FEF7BEF9002873D1B4
:10513000019B01205B1B019305D121000398FEF721
:10514000B3F9002868D1049B76195B1B0493BB68F4
:105150005D1BBD60BAD19FE721000398FEF78EF872
:105160000028A2D00120404297E7029B1B680193D0
:10517000029B5D6808330293002DF6D0724A2B0023
:10518000954200D91300019A216A0398A66AB04794
:10519000002841DD019B2D1A1B180193BB68181ACA
:1051A000B860E9D178E700231D000193E4E7029B92
:1051B0001B680493029B5B680193029B0833029374
:1051C000019B002BF3D08023A2899B002068A56857
:1051D0001A4264D0019B9D4238D89023DB001A42CA
:1051E00034D02169431A0320059363695843059B12
:1051F000C60F3618019801331B187610B34200D938
:105200001E0053053CD531000398FEF7FDFB051E3B
:105210000AD10C23039A13604023A2891343A3816C
:10522000A0E704920192CBE7059A216900F0B1F85A
:10523000A389464A1A4080231343A381059B256115
:10524000ED1825606661019DF61AA660019EB542C3
:1052500000D935002A000499206800F0A3F8A3685B
:105260005B1BA36023685D192560049B9B19049355
:10527000019B9B1B0193BB689E1BBE60A0D10BE7EB
:105280003200039800F0B2F8051ED7D121690398C7
:10529000FEF74EFB8022A3899343A381B9E72369DC
:1052A000834203D36669019B9E4217D9019B9D42AD
:1052B00000D91D002A00049900F074F8A368226840
:1052C0005B1B52192E00A3602260002BCDD1210060
:1052D0000398FEF7E9F80028C7D09DE7019A1C4B18
:1052E00010009A4200D91B483100FCF7CBFC330078
:1052F000049A4343216A0398A56AA847061EB4DCB2
:105300008AE7029B00201E685B680493029B0833B7
:105310000293DBE6059A934208DCA56A3200216A13
:105320000398A847051E00DD02E775E7059A3100DE
:1053300000F038F8059AA36815009B1AA36023684B
:105340009B182360F4E6C04600FCFF7F7FFBFFFF55
:10535000FEFFFF7FFFFFFF7F002370B5064D0400B7
:1053600008002B60FCF7E2FB431C03D12B68002BE9
:1053700000D0236070BDC046CC010020C9B28218A5
:10538000904201D10020704703788B42FBD001305E
:10539000F6E7002310B59A4200D110BDCC5CC4548E
:1053A0000133F8E710B5884202D98B18984203D32D
:1053B000002307E08B5C8354013AFBD210BDCC5C28
:1053C000C45401339A42FAD1F8E7000010B50248FC
:1053D000FEF71EFA10BDC046D501002010B50248E8
:1053E000FEF71CFA10BDC046D5010020F7B5070036
:1053F0000E001400002905D11100FEF705FB050081
:105400002800FEBD002A03D1FEF792FA2500F7E737
:1054100000F01BF80190844203D835004308A342F2
:10542000EED321003800FEF7EFFA051EE8D0019B0D
:1054300022009C4200D91A0031002800FFF7A9FF82
:1054400031003800FEF774FADAE70B1F1B68181FEB
:10545000002B01DA0B58C0187047000003B47146E6
:10546000490840004900095E49008E4403BC70476A
:10547000436F6D6D616E643A2025730052657370E1
:105480006F6E73653A202573000000000D0A4765B2
:105490007474696E67204261736520436F756E7422
:1054A0000D00000041542B5645520D0A000000002B
:1054B00041542B424155440D0A00000041542B52E7
:1054C0004649440D0A00000041542B445649440DFE
:1054D0000A00000041542B5246430D0A0000000010
:1054E00041542B504F57450D0A00000041542B43A7
:1054F0004C53530D0A00000041542B445649443983
:105500003333310D0A0000000D0A507265737320A9
:10551000616E6420686F6C64206120707573682D03
:10552000627574746F6E2061747461636865642061
:10553000746F20504138202870696E20313829203E
:10554000746F207472616E736D69742E0D000000AB
:1055500025730000256420256400000025642025B3
:10556000640D0A0072696768740A0D006C656674E0
:105570000A0D0000666F72776172640A0D00000008
:105580006261636B776172640A0D00006469616730
:105590006F6E616C20666F72776172642D726967DD
:1055A00068740A0D00000000646961676F6E616CC9
:1055B00020666F72776172642D6C6566740A0D00E7
:1055C000646961676F6E616C206261636B776172A1
:1055D000642D72696768740A0D0000006469616770
:1055E0006F6E616C206261636B776172642D6C65B4
:1055F00066740A0D00000000726967687420736C9D
:105600006F770A0D000000006C65667420736C6F84
:10561000770A0D00666F727761726420736C6F7722
:105620000A0D00006261636B7761726420736C6FB6
:10563000770A0D00646961676F6E616C20666F7236
:10564000776172642D726967687420736C6F770A72
:105650000D000000646961676F6E616C20666F7297
:10566000776172642D6C65667420736C6F770A0DB8
:1056700000000000646961676F6E616C20626163A5
:105680006B776172642D726967687420736C6F77D1
:105690000A0D0000646961676F6E616C206261636E
:1056A0006B776172642D6C65667420736C6F770A1A
:1056B0000D00000073746174696F6E6172790A0D78
:1056C00000000000253035640D0A000025303764E5
:1056D0000A0000000D0A52657475726E65642066DA
:1056E000726F6D206D61696E28292E2020537973A9
:1056F00074656D2073746F702E000000496E7465C0
:10570000727275707420776974686F75742068613F
:105710006E646C65722028495352292E20205379DB
:105720007374656D2073746F702E0000486172642D
:10573000204661756C7420696E7465727275707440
:105740002E202053797374656D2073746F702E0052
:1057500030200008BC1F0008181F0008D01E0008D9
:10576000181F0008F81F0008181F0008D01E0008A6
:10577000BC1F0008BC1F0008F81F0008D01E00084E
:10578000D61E0008D61E0008D61E000806200008F7
:10579000BC1F0008BC1F0008181F0008CC1E000812
:1057A000181F0008F81F0008181F0008CC1E00086A
:1057B000BC1F0008BC1F0008F81F0008CC1E000812
:1057C000D61E0008D61E0008D61E000802200008BB
:1057D0006821000856210008342100085E210008D5
:1057E0003421000836240008342100085E21000816
:1057F0005621000856210008362400085E210008C2
:10580000202100082021000820210008AC240008E5
:105810005E2700081C2700081C270008182700081E
:1058200022270008222700082E2A0008182700082F
:10583000222700082E2A000822270008182700081F
:10584000C2290008C2290008C2290008982A0008B5
:105850000000000000000000000000000000000048
:105860000000000000000000000000000000000038
:105870000000000000000000000000000000000028
:105880000000000000000000000000000000000018
:105890000000000000000000000000000000000008
:1058A00000000000000000000000000000000000F8
:1058B00008000020232D302B2000686C4C0065660A
:1058C0006745464700303132333435363738394151
:1058D0004243444546003031323334353637383967
:1058E000616263646566002B2D00303000785800DB
:1058F000412D46612D6638393031323334353637F3
:105900005D000000E7580008EA580008ED5800085C
:10591000002020202020202020202828282828207F
:105920002020202020202020202020202020202077
:1059300020881010101010101010101010101010DF
:1059400010040404040404040404041010101010CF
:105950001010414141414141010101010101010199
:1059600001010101010101010101010110101010EB
:10597000101042424242424202020202020202026B
:1059800002020202020202020202020210101010BF
:1059900020000000000000000000000000000000E7
:1059A00000000000000000000000000000000000F7
:1059B00000000000000000000000000000000000E7
:1059C00000000000000000000000000000000000D7
:1059D00000000000000000000000000000000000C7
:1059E00000000000000000000000000000000000B7
:1059F00000000000000000000000000000000000A7
:105A00000000000000000000000000000000000096
:045A10000000000092
:105A1400C4010020080000200000000070580008A5
:105A240090580008505800080000000000000000D2
:105A34000000000000000000000000000000000062
:105A44000000000000000000000000000000000052
:105A54000000000000000000000000000000000042
:105A64000000000000000000000000000000000032
:085A740000000000000000002A
:04000005080000B936
:00000001FF
